:020000040800F2
:1000000030C5022081020008F31800087F1800089C
:10001000F11800084F040008051B0008000000004C
:10002000000000000000000000000000C101000806
:1000300051040008000000001D02000861190008BA
:100040009B0200089B0200089B0200089B0200081C
:100050009B0200089B0200089B0200089B0200080C
:100060009B0200089B0200089B0200089B020008FC
:100070009B0200089B0200089B0200089B020008EC
:100080009B0200089B0200089B0200089B020008DC
:100090009B0200089B0200089B0200089B020008CC
:1000A0009B020008311A00089B0200089B0200080E
:1000B0009B0200089B0200089B0200089B020008AC
:1000C0009B0200089B0200089B0200089B0200089C
:1000D0009B0200089B0200089B0200089B0200088C
:1000E0009B0200089B0200089B0200089B0200087C
:1000F0009B0200089B0200089B0200089B0200086C
:100100009B0200089B0200089B0200089B0200085B
:100110009B0200089B0200089B0200089B0200084B
:100120009B0200089B0200089B0200089B0200083B
:100130009B020008A50400089B0200089B0200081F
:100140009B0200089B0200089B0200089B0200081B
:100150009B0200089B0200089B0200089B0200080B
:100160009B0200089B0200089B0200089B020008FB
:100170009B0200089B0200089B0200080000000090
:100180009B0200089B0200089B0200089B020008DB
:100190009B0200089B0200089B0200089B020008CB
:1001A0009B0200089B0200089B020008DFF80CD0AD
:1001B00000F01EF9004800470550000830C5022035
:1001C0002C4B19680868B0E8F04F80F30988BFF33A
:1001D0006F8F4FF0000080F311887047000000001F
:1001E00008480068006880F308884FF0000080F33A
:1001F000148862B661B6BFF34F8FBFF36F8F00DF15
:1002000000BF00BF08ED00E0DFF80C00016841F41A
:1002100070010160704700BF88ED00E0EFF30980D6
:10022000BFF36F8F134B1A681EF0100F08BF20ED3D
:10023000108A20E9F04F106009B44FF0500080F3AD
:100240001188BFF34F8FBFF36F8F0DF003FA4FF09C
:10025000000080F3118809BC19680868B0E8F04F05
:100260001EF0100F08BFB0EC108A80F30988BFF3AE
:100270006F8F7047E8000020EFF3058070470000A3
:100280000648804706480047FEE7FEE7FEE7FEE730
:10029000FEE7FEE7FEE7FEE7FEE7FEE7151A0008C9
:1002A000AD0100082DE9F05F0546002092469B460F
:1002B00088460646814640241BE02846414647467C
:1002C000224600F085F853465A46C01A914110D391
:1002D00011461846224600F06CF82D1A67EB01080B
:1002E0004F4622460120002100F063F817EB000979
:1002F0004E41201EA4F10104DFDC484631462A4667
:100300004346BDE8F09F40EA01039B0703D009E0A4
:1003100008C9121F08C0042AFAD203E011F8013BF1
:1003200000F8013B521EF9D27047D2B201E000F84A
:10033000012B491EFBD270470022F6E710B5134689
:100340000A4604461946FFF7F0FF204610BD30B5B7
:1003500004460020034600E05B1C934203D2E05CAD
:10036000CD5C401BF8D030BD30B5054600200346BB
:1003700000E05B1C934205D2EC5CC85C201A01D102
:10038000002CF6D130BD30B50B46014600202022AE
:10039000012409E021FA02F59D4205D303FA02F592
:1003A000491B04FA02F52844151EA2F10102F1DCF2
:1003B00030BD202A04DB203A00FA02F10020704709
:1003C0009140C2F1200320FA03F319439040704793
:1003D000202A04DB203A21FA02F00021704721FA9A
:1003E00002F3D040C2F12002914008431946704701
:1003F000064C074D06E0E06840F0010394E8070072
:1004000098471034AC42F6D3FFF7D4FE94E70008C7
:10041000B4E7000830B58C1810F8012B12F00F0368
:1004200001D110F8013B120906D110F8012B03E0AD
:1004300010F8015B01F8015B5B1EF9D101E001F8E6
:10044000013B521EFBD1A142E6D3002030BDFEE7A6
:1004500070470000064908B509684FF4FA52B1FB2D
:10046000F2F14143009100BF491E0091FBD208BD4B
:100470001400002038B50446006800F580508169FA
:1004800041F480118161206800F5805080690090FE
:100490000120FFF7DFFF2068009900F5805081619F
:1004A00038BD0000014800F062B90000743400203B
:1004B0002DE9F041044621B14FF40060E060C00036
:1004C000A060E0690025002861D028462368402606
:1004D00019683A4A1140D4E902273A43024342F4E8
:1004E00000700843186020680768012000F072F867
:1004F000206807602068466020684668012000F098
:1005000069F820684660206885602068C5602168B9
:1005100088694FF64172104040F080008861206881
:100520008669012000F056F8206886612068C56160
:100530002068C569012000F04DF82068C561226877
:1005400002F5805290691E4908401E49014391619D
:10055000206800F580508569012000F03BF8206894
:1005600000F5805085612068174900F580500160D2
:10057000206800F580500568012000F02BF8206805
:1005800000F580500560A069012803D009E04FF410
:1005900080609BE7206800F58050C1690B4A1143D9
:1005A000C16160690A4982880A640278D0F8010052
:1005B00042EA00204864BDE8F08100000F8120FF7E
:1005C000233FDEF8040020028020C1024000010029
:1005D0000080024070B5044600F0BAFC0546601C7D
:1005E00002D004480078044400F0B2FC401BA04252
:1005F000FAD370BD080000202DE9F04390F8454083
:100600000025012C0DD04FF0010C80F845C00224CC
:1006100080F8444044F2F4574FF000495E1E816276
:1006200017E00220BDE8F08301EB4514C4F8009008
:10063000C5EBC51808EB480802EB8808C4E9017847
:10064000B54204D204F12008C4F80C8000E0E16057
:100650006D1C9D42E8D3026802F58052D16080F89B
:1006600044C0002180F845100846DBE72DE9F0433F
:10067000914690F845200024012A0AD0012680F8EE
:100680004560022280F844204FF4801C5D1EC16248
:100690001BE00220BDE8F08301EB4412C2F800C069
:1006A000C4EBC41707EB470809EB88079760C769D5
:1006B0001FB9176847F440071760AC4203D202F134
:1006C0002007D76000E0D160641C9C42E4D302683C
:1006D00002F58052116180F84460002180F84510D5
:1006E0000846D7E7704730B590F845100023012938
:1006F00008D0012280F84520022180F8441000240F
:10070000816A1AE0022030BD0D685B1CC5F301252B
:10071000022D0AD00D6815F4407F09D04163836B28
:100720005B1C8363012B12D012E08263016302E041
:10073000856B6D1C8563C96881620D68002D01DBC6
:10074000042BE1D300F8442F4470012030BD016335
:100750000B68C3F30D431B1FC363036B9B680364E8
:10076000C96840F8281F02774477002030BD70B573
:100770000446006800F5805041694FF000054906C5
:100780004FF0010608D5204600F0EEF92068402120
:1007900000F58050416109E04069C0070AD0204659
:1007A00000F0AEFA206800F58050466184F844609D
:1007B00084F8455020684FF4803100F58050416145
:1007C000206800F58050406900040CD52046FFF7F2
:1007D00089FF20684FF4004100F58050416184F8A2
:1007E000446084F8455070BD2DE9FC474FF0000689
:1007F0000400B146009603D094F8440018B107E015
:100800000120BDE8FC8784F84560204600F0E2F84E
:100810006648016841F480410160006800F480404E
:1008200001906348016821F4000101600168226AB7
:1008300011430160206800F58050016841F001011A
:10084000016000F085FB05464FF4FA7709E000BF30
:1008500000F07EFB401BB84203D9032004F8440F8C
:1008600067E0206800F580500068C007F0D120687C
:10087000006920F01C0500F01BFD4E494E4A014462
:10088000914202D245F0080516E04C494C4A014419
:10089000914202D245F00C050EE04A494A4A014411
:1008A000914209D3494908444949884202D245F056
:1008B000040501E045F01005206805614FF4004291
:1008C0000021204600F01EFA0125A8BBFF20FFF7FB
:1008D00081FE606888B300F03BFB804641F28837B8
:1008E0006A460121204600F0FDF800F031FBA0EB44
:1008F0000800B84217D800984007F1D54FF480524D
:100900000021204600F0FEF9B0B900F021FB80463E
:100910006A460121204600F0E5F800F019FBA0EB43
:100920000800B8420AD901212046FFF7C1FD04F8AA
:10093000445F0320667064E724E018E000988006B6
:10094000E6D56A461F21204600F0CCF8D0B90098C1
:10095000C10603D54FF40061E16000E0E6604007A6
:1009600001D5A66019E04FF48040A06015E0E06872
:10097000A168C00840EA510082B20021204600F080
:10098000C1F930B101212046FFF792FD84F84450AF
:1009900036E740F6FF70FFF71DFE49462046FFF799
:1009A00087FD84F8445000202BE7000044380240C3
:1009B0000438014000D3CEFEC0E1E40040F1E9FD7F
:1009C00040787D0100796CFC005A6202001F0AFA2F
:1009D00080F0FA02F0B587B0044614216846FFF7AC
:1009E000ABFC3A49206888426DD13948002401683F
:1009F00041F000710160016801F00071059101682A
:100A000041F080610160016801F080610591016839
:100A100041F000610160016801F000610591016829
:100A200041F004010160016801F0040105910168D1
:100A300041F001010160016801F0010105910168C7
:100A400041F002010160016801F0020105910168B5
:100A500041F0400101600068022500F0400005906F
:100A60003220CDE9000502AA03260B2782E8D00038
:100A70006946184800F082F98620CDE9000502AAEF
:100A8000694682E8D000144800F078F92803CDE9DF
:100A9000000502AA694682E8D000104800F06EF90D
:100AA0004FF42050CDE9000502AA694682E8D00043
:100AB0000B4800F063F9002205213D2000F0D4FA34
:100AC0003D2000F0C3FA07B0F0BD000000800240F6
:100AD000303802400008024000000240000402409A
:100AE000001802402DE9F047044690F84400914672
:100AF00082281DD0822084F84400226810694FF6B5
:100B0000FF7500F01C03208A05EAC02018434FF44B
:100B1000F86303EA8111014321F0020040F001056E
:100B2000156100F015FA064601274FF4803810E0F1
:100B30000220BDE8F08700BF00F00AFA801B4045A4
:100B400005D304F8447F002060700320F1E720689B
:100B50000569E807F0D12068406981B2C9F8001042
:100B600084F844700020E4E70148006805F0EEBE18
:100B700004000020F8B5044690F84500012839D05B
:100B8000012584F84550022084F84400206800269E
:100B9000016841F008010160206800680090284663
:100BA000FFF758FC2168009808602068016841F050
:100BB000040101602068006800900120FFF74AFCF2
:100BC0002168009808602046FFF754FC206800F573
:100BD0008050816941F400518161206800F58050A6
:100BE000816941F00201816184F8445084F84560D4
:100BF0000020F8BD0220F8BDF0B590F84520002394
:100C0000012A11D0012780F84570022280F8442083
:100C1000002459B1C66A3268002A0ADA122100F8A3
:100C2000441F44700120F0BD0220F0BD00F8447F55
:100C3000F7E740F2F455A9420BD9B1FBF5FCB1FB43
:100C4000F5F205FB1C1CBCF1000F00D0521C012A60
:100C500043D1326842F040523260C26AC1F30C01A3
:100C60005160C16A0A6842F000420A60C16AC968FC
:100C7000C16234E0D6F800C02CF0405CC6F800C079
:100C800033B9C66AD6F800C04CF0805CC6F800C024
:100C9000C66A7560561EB34214D1C66AD6F800C043
:100CA0004CF0005CC6F800C0C2F10106C6EBC616E7
:100CB00006EB4606D0F82CC001EB8606C6F30C0600
:100CC000CCF80460C66AD6F800C04CF0004CC6F8F8
:100CD00000C0C66A5B1CF668C6629342CAD301684C
:100CE00001F580514A69520705D504224A6101681D
:100CF00001F580514C6000F8447F44700020F0BD45
:100D0000704700002DE9F041044690F84400422865
:100D10001ED0422084F84400236818694FF6FF76FD
:100D200000F01C05208A06EAC02028434FF4F8652D
:100D300005EA8111014390B241F003055861206832
:100D4000056100F005F9064601274FF4803810E0F0
:100D50000220BDE8F08100BF00F0FAF8801B40459A
:100D600005D304F8447F002060700320F1E7206879
:100D70000569E807F0D184F84470EAE72DE9F84FF7
:100D800000224FF0010803254FF00F0E0B6808FA00
:100D900002F42340A3426ED14E68012E05D0022EEC
:100DA00003D0112E01D0122E12D186684FEA420CC8
:100DB00005FA0CF7BE43CF6807FA0CF73743876094
:100DC0004668A6430C79C4F300149440344344604D
:100DD000C668570005FA07FC8C6826EA0C06BC407A
:100DE0003443C4604C68022C01D0122C13D1D408B7
:100DF00000EB8404A346D4F8209054074FEAD46A49
:100E00000EFA0AF629EA06090E6906FA0AF646EA11
:100E10000906CBF8206004680E7924EA0C0406F079
:100E20000306BE40264306604C68E4006FD53B4C89
:100E3000266846F480462660246822F0030604F4FF
:100E400080440094364C3444A446D4F808489607AD
:100E5000360F0EFA06F7BC43324FB84201D10027D5
:100E60002EE0314FB84201D1012729E02F4FB8427F
:100E700002D1022724E04AE02D4FB84201D10327D6
:100E80001EE02C4FB84201D1042719E02A4FB84286
:100E900001D1052714E0294FB84201D106270FE000
:100EA000274FB84201D107270AE0264FB84201D1A7
:100EB000082705E0244FB84201D1092700E00A279E
:100EC000B7402743CCF80878204E34684F689C43DD
:100ED000FF0300D51C4334601C4E361D34684F6838
:100EE0009C43BF0300D51C433460184E0836346859
:100EF0004F689C43FF0200D51C433460134E0C36F0
:100F000034684F689C43BF0200D51C433460521CB8
:100F1000102AFFF43BAFBDE8F88F000044380240D0
:100F2000003001400000024000040240000802407E
:100F3000000C024000100240001402400018024061
:100F4000001C02400020024000240240003C0140FE
:100F5000014880687047000008000020024881684E
:100F60000278114481607047080000200B4810B5DA
:100F7000016841F400710160016841F48061016021
:100F8000016841F480710160032000F08DF80020B9
:100F900000F006F800F03EF8002010BD003C0240D2
:100FA00010B5014688B00022192000F05DF8192024
:100FB00000F04CF813480024016841F00101016081
:100FC000006805A900F001000690684600F050F99D
:100FD00000F074F90C494000B0FBF1F10C480B4AE9
:100FE000491E026040F2E732C0E90324C0E901145F
:100FF00000F056FB10B1012008B010BD044800F00D
:101000006BFBF9E74438024040420F00000001400A
:10101000BC3400200C4882B0016841F4804101607A
:10102000006800F4804000900748001F016841F00C
:10103000805101600068002200F0805000900F2174
:10104000901E02B000F010B844380240002809DBBE
:1010500000F01F02012191404009800000F1E020D2
:10106000C0F8001170470000F0B40E4B1B680C462E
:10107000C3F30223C3F10705042D00D90425191D6C
:10108000072901D2002300E0DB1E012606FA05F144
:10109000491E214099409E40761E16403143F0BCC7
:1010A00000F042BD0CED00E0064900F007020868C0
:1010B0004FF6FF03184040EA0220034A104308603D
:1010C000704700000CED00E00000FA052DE9F84340
:1010D0001748016841F0805101600068154F00F029
:1010E0008050012600903E64FFF732FF05464FF422
:1010F0007A78114C05E000BFFFF72AFF401B4045FE
:101100000DD86068C003F7D57E64FFF721FF054660
:10111000464607E0FFF71CFF401BB04202D9032000
:10112000BDE8F88360688003F4D50020F8E700008C
:101130004038024000000E42007000402DE9F047A8
:101140000E46050065D0DFF81481D8F80000F7B22C
:1011500000F00F00B04207D288F80070D8F8000005
:1011600000F00F00B04254D128683D4C810712D5E1
:10117000400703D5206840F4E0502060287800073D
:1011800003D5206840F4604020602068A96820F002
:10119000F000084320602878C0072DD030496868E7
:1011A0000839012812D0022813D0032811D0096869
:1011B000890700292DDA216821F00301014321600C
:1011C000FFF7C6FE814641F2883A0EE009688903BE
:1011D000EFE709688901ECE7FFF7BAFEA0EB090128
:1011E000514502D90320BDE8F0872068696800F006
:1011F0000C00B0EB810FEFD1D8F80010404601F0A1
:101200000F01B14207D90770006800F00F00B0422B
:1012100001D00120E7E72878400705D52068E96874
:1012200020F4E050084320602878000706D52068A5
:10123000296920F4604040EAC100206000F04EF8C7
:101240002168084AC1F30311515CC840064908608F
:1012500006480068FFF7A4FE0020C4E7003C0240F7
:1012600008380240D0E30008140000200C000020E1
:101270000F2202600C4A136803F0030343601368F3
:1012800003F0F0038360136803F4E053C360126853
:101290004FF4E05303EAD20202610448006800F010
:1012A0000F0008607047000008380240003C024010
:1012B00001480068704700001400002004480549F8
:1012C00000680968044AC1F34231515CC840704764
:1012D0001400002008380240E0E30008154810B56B
:1012E000006810F00C02144813D01449042A0FD0DF
:1012F000082A0ED10F4C241F2268236802F03F02F7
:101300005B0207D52068C0F38810A0FB010106E04E
:10131000084610BD2168C1F38811A1FB000100231C
:10132000FEF7C0FF2168C1F30141491C4900B0FB31
:10133000F1F010BD083802400024F40040787D012F
:101340002DE9F84F040076D02078DFF838A3CE4D91
:10135000C00749D0DAF800105046C1F381010129D5
:1013600008D00068C0F3810002280AD1281D006857
:10137000400206D52868800336D560680028E2D090
:1013800032E06068B0F5803F10D0B0F5A02F28683B
:1013900010D020F480302860286820F48020286055
:1013A0006068A0B1FFF7D4FD06460CE0286840F461
:1013B0008030F4E740F480202860F7E7FFF7C8FDAD
:1013C000801B642873D828688003F7D50CE0FFF7EA
:1013D000BFFD064605E000BFFFF7BAFD801B64288D
:1013E000F0D828688003F7D42078DFF8A08280073F
:1013F0004FF000093ED5DAF80010504611F00C0FFE
:1014000009D00068C0F3810002280BD19D48001F5D
:101410000068400206D42868800715D5E0680128D6
:1014200009D111E0E068B8B10120C8F80000FFF769
:101430008FFD064605E020E1FFF78AFD801B0228AC
:10144000C0D828688007F7D52868216920F0F800FF
:1014500040EAC10028600DE0C8F80090FFF778FD71
:10146000064604E0FFF774FD801B02281FD8286899
:101470008007F7D42078000722D5824E844861691E
:101480006C3671B101210160FFF762FD074604E08F
:10149000FFF75EFDC01B022809D830688007F7D52A
:1014A0000EE0C0F80090FFF753FD074605E082E02C
:1014B000FFF74EFDC01B02287DD830688007F7D4A7
:1014C0002078400768D5DFF8BCB100270BF1380B56
:1014D000DBF80000C0000BD4DBF8001041F08051B5
:1014E000CBF80010DBF80000012700F080500090DE
:1014F000684E3068C00510D4306840F480703060A9
:10150000FFF726FD009005E0FFF722FD0099401A45
:10151000022850D83068C005F6D55A4EA068683603
:1015200001280FD00528306810D020F0010030606D
:10153000306820F004003060A068B8B1FFF708FD03
:1015400000900FE0306840F00100F4E740F0040044
:101550003060F7E7FFF7FCFC0099411A41F2883050
:10156000814266D830688007F4D50EE0FFF7F0FCC2
:10157000009007E0FFF7ECFC0099411A41F2883037
:10158000814256D830688007F4D42FB1DBF80010C0
:1015900021F08051CBF80010A069D0B3DAF8002018
:1015A0005146C2F38102022A4AD00228484607D097
:1015B000C8F8600000E03CE0FFF7CAFC04463BE0EE
:1015C0004746C8F86000FFF7C3FC064605E000BFC9
:1015D000FFF7BEFC801B02282BD828688001F7D4B7
:1015E000D4E907010843A16A2B4A490802EB0141EB
:1015F000626A41EA8211084394F82C1040EA0161C2
:101600002048001F016001203866FFF7A1FC044656
:1016100005E034E0FFF79CFC001B022809D828688D
:101620008001F7D52BE000BFFFF792FC001B0228DA
:1016300002D90320BDE8F88F28688001F4D41EE0A9
:101640000128F7D00868E26900F48001914214D1C2
:10165000226A00F03F0191420FD147F6C071626AE1
:101660000140914209D1A26A00F44031914204D173
:10167000E16A00F07060884201D00120DAE70020C2
:10168000D8E7000008380240003802400000474216
:10169000800E4742007000400000FFFF7047704717
:1016A00010B5040003D094F83D0010B107E001200C
:1016B00010BD002084F83C00204600F00CF8022009
:1016C00084F83D00211D206800F0B8F9012084F85D
:1016D0003D00002010BD70470168CA6842F0010259
:1016E000CA600068816801F00701062903D001681B
:1016F00041F00101016000207047704770B5044659
:10170000006801694FF00005C943890715D4C16815
:10171000C943890711D4E91E01610120207720689F
:1017200080698007204602D0FFF7E7FF04E000F061
:1017300098F8204600F096F8257720680169C9439B
:10174000490717D4C168C943490713D46FF004018E
:101750000161022020772068806910F4407F2046D4
:1017600002D0FFF7CAFF04E000F07BF8204600F04B
:1017700079F8257720680169C943090716D4C1683B
:10178000C943090712D46FF00801016104202077D2
:101790002068C0698007204602D0FFF7AEFF04E052
:1017A00000F05FF8204600F05DF8257720680169B9
:1017B000C943C90617D4C168C943C90613D46FF019
:1017C00010010161082020772068C06910F4407F73
:1017D000204602D0FFF791FF04E000F042F82046D7
:1017E00000F040F8257720680169C943C90708D18E
:1017F000C168C943C90704D1891E0161204600F0B0
:1018000033F820680169C943090609D4C168C9438E
:10181000090605D46FF0800101612046FFF73EFF05
:1018200020680169C943490609D4C168C94349060A
:1018300005D46FF040010161204600F01FF82068D8
:101840000169C94389060BD4C168C943890607D415
:101850006FF0200101612046BDE87040FFF71FBF17
:1018600070BD70477047000000680349884201D18D
:10187000FFF774BB70470000000001407047FEE7AF
:1018800007490968C9070AD0054980390968C907A5
:1018900005D04FF060410A68002AFCD008707047FC
:1018A000800E00E0114808B5016841F004010160B4
:1018B000016801F004010091016841F0010101603B
:1018C000016801F001010091016841F0020101602D
:1018D000016801F002010091016841F040010160DE
:1018E000006800F04000009008BD00003038024061
:1018F000FEE77047002186B008460BF05FF91348F9
:1019000003906FF07F40049011480590114A1249EE
:1019100000208DE8070005AB04AA03A90F4804F0D6
:10192000E3FD0E4804F082FE0C4890F82B004007BF
:101930000A4802D504F0B6FE01E004F07DFE01F095
:10194000EFFA002005F086F8FBE700000A0B00E93B
:101950000A0B00288DCD0008452E0008A4030020A6
:1019600010B5502080F31188BFF34F8FBFF36F8FF6
:101970000CF07CFB18B104494FF080500860002047
:1019800080F3118810BD000004ED00E030B593B085
:1019900030216846FEF7D0FC14210CA8FEF7CCFCE1
:1019A0001A480025016841F080510160006800F08C
:1019B000805011901648016841F440410160006870
:1019C000022400F440401190012003901020049064
:1019D000009406940820CDE90750B420CDE909040D
:1019E00004200B906846FFF7ABFCFFF76FFB0CA9D8
:1019F0000F2081E831004FF4A0500F90E0021090CA
:101A000005210CA8FFF79AFB13B030BD4038024007
:101A1000007000400548016841F47001016003490D
:101A20004FF00060803908607047000088ED00E0EA
:101A30000148FFF763BE0000BC340020F0B5026827
:101A4000254C264D264E274F274B4FF0804CA04269
:101A500009D0604507D0A84205D0B04203D0B842B3
:101A600001D0984204D122F0700E4A6842EA0E0278
:101A7000A0421BD0604519D0A84217D0B04215D063
:101A8000B84213D0984211D0184DA8420ED0184D2C
:101A9000A8420BD0174DA84208D0174DA84205D038
:101AA000164DA84202D0164DA84203D122F440752B
:101AB000CA682A434D6922F080022A4302608A687C
:101AC000C2620A688262A04201D0984201D10969CB
:101AD000016301214161F0BD0000014000040040AC
:101AE00000080040000C004000040140004001409C
:101AF000004401400048014000180040001C004024
:101B000000200040FEE700000FB4054B10B503A90C
:101B1000044A029800F028F810BC5DF814FB00009D
:101B2000012F0008480100200907090E002804DBE6
:101B300000F1E02080F80014704700F00F0000F181
:101B4000E02080F8141D704702E008C8121F08C189
:101B5000002AFAD170477047002001E001C1121F2E
:101B6000002AFBD1704700002DE9FF4F8BB09A4649
:101B70000F460546002606E025280BD052460D9953
:101B800090476D1C761C28780028F5D10FB03046A0
:101B9000BDE8F08F0024A0460122604900E0044324
:101BA00015F8013F203B02FA03F00842F7D12878EC
:101BB0002E2817D115F8010F44F004042A280ED05E
:101BC0006FF02F022878A0F1300109290AD808EB1C
:101BD000880102EB410100EB01086D1CF2E757F8A8
:101BE000048B6D1C287869283ED006DC0028CDD0F7
:101BF00063280BD0642804D136E0732810D07528F0
:101C00004BD052460D999047761C85E017F8040B8F
:101C10008DF8000000208DF80100E946012003E066
:101C200057F8049B4FF0FF3061074FF0000401D4D8
:101C30000AE0641C44450DDA8442FADB19F804100A
:101C40000029F6D106E0641C8442FCDB19F804107C
:101C50000029F8D1264404E019F8010B52460D99E9
:101C60009047641EF8D257E001CF4FF00A0B0028CE
:101C700002DA40422D2102E0210504D52B218DF806
:101C80002410012103E0E10705D02021F7E70DF141
:101C9000200908910CE00021F9E701CF4FF00A0B71
:101CA000F9E75946FEF76FFB01F1300209F8012D03
:101CB0000028F6D1ADEB090000F1200B600701D43C
:101CC0004FF00108D84502DDA8EB0B0000E0002032
:101CD0008046002406E009A85246005D0D99904711
:101CE000641C761C08988442F5DB04E030205246E0
:101CF0000D999047761CB8F10001A8F10108F5DCB8
:101D000005E019F8010B52460D999047761CBBF17E
:101D10000001ABF1010BF4DC6D1C34E70928010074
:101D20002DE9F04717460E4604006FF0050548D030
:101D300004F11400814606F0CDFCA8B3AEB32078C0
:101D4000A16A03F047FE05004FF0FF383DD06E60FA
:101D500006F0CAFB2F722946484606F0B1FC98B33C
:101D60006C680021204606F039FF0021204609F06A
:101D700069FC0021204609F0D7FE002211462046CA
:101D800008F08AFC0021204607F096FA00206860DF
:101D900005F11000044606F063FC204606F08DFCB9
:101DA000284603F0C1FF1BE00BE0FFE7114948465E
:101DB00006F086FC28B9A36A1BB100221146204612
:101DC00098472846BDE8F0870CE00A49484606F0E7
:101DD00077FC28B9A36A1BB1002211462046984718
:101DE0004046EFE7A36A1BB1002211462046984700
:101DF0000020E7E71800002010B50446406880473F
:101E000022462068BDE81040014906F0BDBC000034
:101E1000F91D000870B505460C46880706D009A3D1
:101E20004FF4CE7213A11BA0FFF76EFE06F0B2FBBB
:101E3000A96809682160A9680C60BDE8704006F0D7
:101E4000D1BB00002E2E2F4D6964646C65776172E2
:101E500065732F54686972645F50617274792F4C96
:101E60007749502F7372632F636F72652F6D656DA5
:101E7000702E63006D656D705F667265653A206DEA
:101E8000656D2070726F7065726C7920616C696726
:101E90006E656400417373657274696F6E202225EC
:101EA0007322206661696C6564206174206C696EC0
:101EB0006520256420696E2025730A0070B50446EC
:101EC00006F068FB0546A0680468002C0FD0216866
:101ED0000160A00706D008A34FF4A47212A11BA0B2
:101EE000FFF712FE284606F07DFB204670BD28460F
:101EF00006F078FB002070BD2E2E2F4D6964646CB7
:101F00006577617265732F54686972645F5061729E
:101F100074792F4C7749502F7372632F636F7265FA
:101F20002F6D656D702E63006D656D705F6D616CFA
:101F30006C6F633A206D656D702070726F706572A2
:101F40006C7920616C69676E65640000417373652C
:101F50007274696F6E2022257322206661696C6538
:101F600064206174206C696E6520256420696E2090
:101F700025730A002DE9F0470E46040006D144A35C
:101F80004FF4C2724FA153A0FFF7BEFD0027676058
:101F9000657867706FF00C08042D03D006F0FAFA2C
:101FA000267208E0002644B106F0F4FA94F908100D
:101FB000414500DD277206F015FBA36A7BB10022C4
:101FC000042120469847A36A4BB1002211462046BF
:101FD0009847A36A1BB1002202212046984704F1CA
:101FE0001000814606F076FB18B10021484606F045
:101FF00067FB04F11400814606F06CFB18B1002168
:10200000484606F05DFB012D0FD0042D0DD0032DA9
:102010000BD0606A002839D0BDE8F0471CA340F21D
:10202000BD1236A12BA0FFF76FBD217FC1F3800049
:1020300021F004012177002828D1606A30B914A367
:1020400040F2B31234A123A0FFF75EFD606A06716F
:10205000606A05680C35284606F079FB30B90CA398
:102060004FF4DB7233A11BA0FFF74EFD676244B152
:1020700006F090FA94F90810414500DD267206F04A
:10208000B1FA2846BDE8F04706F05EBBBDE8F08730
:102090002E2E2F4D6964646C6577617265732F54C1
:1020A000686972645F50617274792F4C7749502F60
:1020B0007372632F6170692F6170695F6D73672E32
:1020C00063000000636F6E6E20213D204E554C4C26
:1020D00000000000417373657274696F6E202225E1
:1020E0007322206661696C6564206174206C696E7E
:1020F0006520256420696E2025730A00636F6E6E6B
:102100002D3E63757272656E745F6D7367203D3D21
:10211000204E554C4C000000636F6E6E2D3E637573
:102120007272656E745F6D736720213D204E554C51
:102130004C000000696E61766C6964206F705F63AB
:102140006F6D706C657465645F73656D0000000091
:1021500070B50A4D0646002404EB440005EBC000B0
:10216000017D29B18068B04202D1204600F034F9E7
:10217000641CE4B20A2CEFD370BD0000C0670020DD
:102180002DE9F74F84B04FF00A0B00240646DA46DB
:102190005F46D94602940194CDF800404F4904EBC4
:1021A000440001EBC008039098F814500A2F16D091
:1021B000002D24D0012D08D0022D06D248A340F2D4
:1021C000251255A164A0FFF79FFC66B13168D8F8CD
:1021D0000400814207D160B207B0BDE8F08F002D46
:1021E000E8D167B20BE0012D17D0022D07D3B8F864
:1021F00012000099884202D34FFA84FA0090641CBE
:10220000E4B20A2CCAD3059881074FF0FF30E3D41B
:102210000A2F18D01ADAFCB242E03048039950F87D
:1022200031000028B8F8120006D002998842E6D39F
:102230004FFA84F90290E2E701998842DFD34FFA1E
:1022400084FB0190DBE70599C907C5D0BAF10A0FF5
:102250000FDA0AF0FF04214804EB440150F8310082
:1022600090B11FA340F26F1245A13BA0FFF74CFCB9
:102270000AE0BBF10A0F02DA0BF0FF0404E0B9F147
:102280000A0FA9DA09F0FF040A2C06D314A340F2BE
:10229000811241A130A0FFF737FC204600F09CF8E6
:1022A0000A2C06D30EA340F285123BA12AA0FFF709
:1022B0002BFC0A4804EB440100EBC105287D30B13A
:1022C00007A34FF4C37239A123A0FFF71DFC0EB181
:1022D00030686860002068827DE70000C0670020E9
:1022E0002E2E2F4D6964646C6577617265732F546F
:1022F000686972645F50617274792F4C7749502F0E
:102300007372632F636F72652F697076342F6574F3
:10231000686172702E6300007374617465203D3DC6
:10232000204554484152505F53544154455F5045F5
:102330004E44494E47207C7C207374617465203E76
:102340003D204554484152505F53544154455F53DA
:102350005441424C45000000417373657274696FCB
:102360006E2022257322206661696C656420617489
:10237000206C696E6520256420696E2025730A0033
:102380006172705F7461626C655B695D2E71203D86
:102390003D204E554C4C000069203C204152505F7E
:1023A0005441424C455F53495A4500006172705F89
:1023B0007461626C655B695D2E7374617465203D48
:1023C0003D204554484152505F53544154455F4568
:1023D0004D5054590000000070B5074C00EB40050B
:1023E000002654F8350018B104F088FF44F8356031
:1023F00004EBC500067570BDC06700202DE9F043F1
:1024000085B00D00074609D07C684FF4807820889D
:10241000404539D12079062836D109E01CA34FF474
:10242000227229A12CA0FFF76FFB05B0BDE8F08355
:102430006079042828D16088082825D1D4F80E00B6
:102440000490A169686820B1814202D10126334617
:1024500001E00026022304F10802914604A928465F
:1024600000F096FBE08840450ED16EB1022204AB2D
:10247000CDE90232291DCDE9001905F125031946E0
:102480004A46284600F086FA384604F037FFCCE783
:102490002E2E2F4D6964646C6577617265732F54BD
:1024A000686972645F50617274792F4C7749502F5C
:1024B0007372632F636F72652F697076342F657442
:1024C000686172702E6300006E6574696620213D3C
:1024D000204E554C4C000000417373657274696F57
:1024E0006E2022257322206661696C656420617408
:1024F000206C696E6520256420696E2025730A00B2
:10250000FEB515460E46040006D142A340F21B322A
:102510004EA152A0FFF7F8FA36B93EA34FF4477226
:1025200058A14EA0FFF7F0FA35B93AA340F21D3298
:1025300057A14AA0FFF7E8FA2146286800F0D6FE26
:1025400008B1574B39E02868C0F303110E291FD09A
:10255000A168636800EA01020B409A4208D080B289
:10256000A0F57E41A93903D0E06880B304F10C05E1
:102570004C4A4D49137803EB430001EBC000077D43
:10258000022F28D32F684068874224D11A4631E0B1
:1025900001208DF8040000208DF805005E208DF8E4
:1025A0000600687801AB00F07F008DF80700A8787E
:1025B0008DF80800E8788DF809004FF4006000906D
:1025C00004F125023146204600F0C0FBFEBDFFE7C6
:1025D0006FF00300FAE7002000EB400301EBC303B8
:1025E0001F7D022F0BD32F685B689F4207D1C0B2BB
:1025F000107002463146204600F058F8E6E7401CCD
:1026000040B20A28E8DB32462946204600F0D6F8D8
:10261000DCE700002E2E2F4D6964646C65776172D3
:1026200065732F54686972645F50617274792F4CBE
:102630007749502F7372632F636F72652F697076BD
:10264000342F6574686172702E6300006E65746962
:102650006620213D204E554C4C00000041737365AF
:102660007274696F6E2022257322206661696C6521
:1026700064206174206C696E6520256420696E2079
:1026800025730A007120213D204E554C4C0000005E
:1026900069706164647220213D204E554C4C0000ED
:1026A000E8E30008D8000020C06700202DE9F843C7
:1026B0000646154688461C4802EB450100EBC1045E
:1026C000207D022806D219A34FF43B7225A131A028
:1026D000FFF71AFA144A05EB4501207D02EBC1050C
:1026E0000C35022813D1608A0327B0F58E7F04D9F8
:1026F000211D304600F006FA07E0B0F5877F06D3CB
:102700002A46211D304600F003FA00B927754FF420
:10271000006000902B4606F125024146304600F04D
:1027200015FBBDE8F8830000C06700202E2E2F4D5A
:102730006964646C6577617265732F54686972644B
:102740005F50617274792F4C7749502F7372632FE9
:10275000636F72652F697076342F6574686172706B
:102760002E6300006172705F7461626C655B617200
:10277000705F6964785D2E7374617465203E3D20DE
:102780004554484152505F53544154455F5354415E
:10279000424C4500417373657274696F6E20222547
:1027A0007322206661696C6564206174206C696EB7
:1027B0006520256420696E2025730A002DE9FC5FE1
:1027C0008246253001908846086814464FF0FF364F
:1027D0004FF0000B514600F089FD002828D1D8F8B1
:1027E0000000C0F303110E2922D0B8F1000F1FD052
:1027F00000281DD0524601214046FFF7C1FC0700CA
:1028000018D4394907EB470901EBC905287D002891
:1028100012D0012808D0022806D234A340F2C732D1
:1028200040A14AA0FFF770F9BBF1000F0AD108E000
:102830006FF00F00BDE8FC9F01202875C5F808A0C7
:1028400000E034B94146504600F05CF90646002CE1
:10285000F0D0287DDFF8908002280DD3454805F19F
:102860000C03214607704FF4006000905046019A17
:1028700000F06CFA064635E0012833D125464FF4C6
:102880007B7668892989884207D1286828B117A3EF
:10289000324639A12DA0FFF737F9287B01280ED049
:1028A00029890022022004F0DBF8050018D0214617
:1028B00004F0A0FB58B1284604F020FD10E02D687C
:1028C000002DDED12546204604F072FF45B158F8B0
:1028D000390008B104F012FD48F83950002601E033
:1028E0004FF0FF363046A5E7C06700202E2E2F4D53
:1028F0006964646C6577617265732F54686972648A
:102900005F50617274792F4C7749502F7372632F27
:10291000636F72652F697076342F657468617270A9
:102920002E6300006172705F7461626C655B695D4B
:102930002E7374617465203D3D2050454E44494ED0
:1029400047206F7220535441424C450041737365D8
:102950007274696F6E2022257322206661696C652E
:1029600064206174206C696E6520256420696E2086
:1029700025730A00D80000206E6F207061636B65BC
:10298000742071756575657320616C6C6F77656413
:10299000210000002DE9FF4F81B09846DDE90FA925
:1029A000DDF838B006004FF0000706D12BA34FF436
:1029B0008B6238A13BA0FFF7A7F800221C21022060
:1029C00004F04EF8050046D068891C2806D223A3DF
:1029D00040F263423DA133A0FFF796F86C6811986E
:1029E00001F0ECFCE08096F82400062806D01BA33A
:1029F00040F26A4242492BA0FFF786F8D8F800104F
:102A0000A160B8F80400A081DAF80010C4F8121030
:102A1000BAF80400E082DBF80000C4F80E00D9F830
:102A20000000A0614FF480702080082060800620A4
:102A300020710420607140F60600DDE90223009059
:102A40002946304600F082F9284604F057FC384603
:102A500005B0BDE8F08F4FF0FF30F9E72E2E2F4D77
:102A60006964646C6577617265732F546869726418
:102A70005F50617274792F4C7749502F7372632FB6
:102A8000636F72652F697076342F65746861727038
:102A90002E6300006E6574696620213D204E554C02
:102AA0004C000000417373657274696F6E202225BB
:102AB0007322206661696C6564206174206C696EA4
:102AC0006520256420696E2025730A0063686563AC
:102AD0006B2074686174206669727374207062750B
:102AE000662063616E20686F6C6420737472756316
:102AF00074206574686172705F6864720000000021
:102B000050E70008014A00F003B80000E8E30008BD
:102B10007FB5064D031D0124CDE90035CDE9021432
:102B200021331946FFF736FF04B070BDEEE300080D
:102B300070B5164D002400BF04EB440005EBC00245
:102B4000107DF0B1518A491C89B25182B1F5967F4E
:102B50000AD2012806D003280AD004280AD0012866
:102B60000BD00EE0052908D32046FFF735FC08E01E
:102B7000042000E00220107503E0111D9068FFF7AB
:102B8000C1FF641CE4B20A2CD6D370BDC06700201C
:102B9000F8B5044690F824001F4616460D46062850
:102BA00006D020A340F2AB122CA135A0FEF7ACFF5B
:102BB0009DB3286888B3214600F098FB68BB28784D
:102BC000C0F303100E2829D0224639462846FFF7C5
:102BD000D7FA002820DB00EB40013348022300EB4A
:102BE000C102137594603368D360B38813820023E5
:102BF000538250F8315075B140F831304FF40060D5
:102C00000090334604F125022946204600F09EF844
:102C1000284604F073FB0020F8BDFFE76FF00F00BB
:102C2000FAE700002E2E2F4D6964646C657761729F
:102C300065732F54686972645F50617274792F4CA8
:102C40007749502F7372632F636F72652F697076A7
:102C5000342F6574686172702E6300006E6574694C
:102C6000662D3E6877616464725F6C656E203D3DE1
:102C7000204554485F4857414444525F4C454E00FC
:102C8000417373657274696F6E202225732220660A
:102C900061696C6564206174206C696E65202564CF
:102CA00020696E2025730A00C067002070B50446B5
:102CB00040890D460E283CD9606801788689CA078C
:102CC00014D0012905D006221F49FDF740FB48B169
:102CD0000CE0417851B980785E2807D1607B40F0E4
:102CE000100002E0607B40F0080060736FF00D019F
:102CF000082E03D0B6F5C16F1BD10FE095F82B005D
:102D0000000716D560890E2813DB204604F0CCFBA3
:102D100078B92946204600F02BFC12E095F82B00EC
:102D2000000706D560890E2803DB204604F0BCFBB3
:102D300018B1204604F0E2FA03E029462046FFF7E6
:102D40005DFB002070BD0000E8E300082DE9F041C4
:102D500004461F4690460E46069801F02FFB054696
:102D60000E21304604F0A0FB18B16FF00100BDE861
:102D7000F0817068858139680160B9888180D8F8F0
:102D80000020C0F80620B8F80410418194F824000F
:102D9000062806D006A340F22B1213A11FA0FEF7AF
:102DA000B3FE31462046A269BDE8F041104700005D
:102DB0002E2E2F4D6964646C6577617265732F5494
:102DC000686972645F50617274792F4C7749502F33
:102DD0007372632F6E657469662F65746865726EB1
:102DE00065742E63000000006E657469662D3E6890
:102DF00077616464725F6C656E206D7573742062B8
:102E000065203620666F722065746865726E657421
:102E10005F6F7574707574210000000041737365F5
:102E20007274696F6E2022257322206661696C6559
:102E300064206174206C696E6520256420696E20B1
:102E400025730A0010B5040006D10BA340F22D2211
:102E50000EA112A0FEF758FE732084F82C007420F7
:102E600084F82D00174860611748A061204601F0E2
:102E70005FF9002010BD00002E2E2F5372632F65C6
:102E8000746865726E657469662E63006E65746938
:102E90006620213D204E554C4C0000004173736567
:102EA0007274696F6E2022257322206661696C65D9
:102EB00064206174206C696E6520256420696E2031
:102EC00025730A0001250008114300080B4E044633
:102ED0004FF0FF373946306803F060FD0028F9D124
:102EE000204601F0B7F90500F4D022692146904749
:102EF0000028F5D0284604F001FAF1E7040000208C
:102F0000054A914202D0054A914201D1FEF7B8BC70
:102F10004FF0FF3070470000480100204C010020B6
:102F200008B50120830200900022024902A005F0AA
:102F300013FC08BD412F0008485454500000000005
:102F400030B5002285B01146102002F0F7FF0500D1
:102F50003DD05022002102F0CBFD002837D1FF21C7
:102F6000284602F097FF01A9284602F097FC0028A6
:102F7000F9D14FF40060019C05F058F802A92046F1
:102F800003F098F8C8B9207AB8B904AA03A902983E
:102F900002F0F4FBBDF8100005280ED305220DA1A8
:102FA0000398FDF7E1F940B90020009001234FF4A8
:102FB0008E720A49204603F007FA204602F0F2FD1D
:102FC000029802F059FC019802F048FECBE705B0E8
:102FD00030BD0000474554202F00000060E5000888
:102FE0000A46032100F0F2B82DE9FE4F8A46434914
:102FF0000546D1F8088098F800000007840E142CCC
:1030000076D36889042873D36868007800286FD065
:1030100008286DD1486901F11407C0F303120E2A84
:1030200066D08946096800F061F9002860D12889D6
:1030300008285DD304F10E010E46284604F034FA48
:1030400000282DD028890022204481B2022003F0DC
:1030500007FD06004CD0718904F10800814216D3A7
:10306000224641467068FDF74EF96142304604F051
:103070001BFA002806D022A3AF222FA13CA0FEF706
:1030800043FD04E02946304603F0B4FF18B1304652
:1030900004F034F92CE0284604F030F935460CE011
:1030A0007142284604F000FA002806D014A3C0227A
:1030B00039A12FA0FEF728FD1AE0214628466E68A8
:1030C00004F0F2F9A0B968683968FF22C160D9F844
:1030D0001010016100213170718002724181012262
:1030E0008DE806040A46FF233946284600F012FB05
:1030F0002846BDE8FE4F04F001B90000FC34002072
:103100002E2E2F4D6964646C6577617265732F5440
:10311000686972645F50617274792F4C7749502FDF
:103120007372632F636F72652F697076342F6963D2
:103130006D702E630000000069636D705F696E70D2
:1031400075743A206D6F76696E6720722D3E7061DE
:10315000796C6F616420746F2069636D702068659D
:1031600061646572206661696C65640A0000000034
:10317000417373657274696F6E2022257322206615
:1031800061696C6564206174206C696E65202564DA
:1031900020696E2025730A0069636D705F696E7027
:1031A00075743A20726573746F72696E67206F72FE
:1031B0006967696E616C20702D3E7061796C6F611A
:1031C00064206661696C65640A0000002DE9FF47B0
:1031D00091468846064600222421012003F040FC47
:1031E000050031D06889242806D218A340F2611264
:1031F00024A12FA0FEF788FC6C6877681C2284F855
:10320000008084F801904FF00008A4F80480A4F82E
:103210000680686871680830FDF775F8F8680390F3
:1032200003A800F017FC60B1A4F802800122CDF8D9
:103230000080CDE90120FF2303AA0021284600F0E9
:1032400069FA284604F05AF8BDE8FF872E2E2F4D64
:103250006964646C6577617265732F546869726420
:103260005F50617274792F4C7749502F7372632FBE
:10327000636F72652F697076342F69636D702E638A
:1032800000000000636865636B20746861742066E9
:103290006972737420706275662063616E20686F56
:1032A0006C642069636D70206D6573736167650080
:1032B000417373657274696F6E20222573222066D4
:1032C00061696C6564206174206C696E6520256499
:1032D00020696E2025730A000A460B21FFF776BF8E
:1032E000EFF30580002800D001207047421C12D067
:1032F00088B191F82B2092070BD54B68834208D0F8
:10330000896800EA01020B409A4202D10143491C3C
:1033100001D0002070470120704700002DE9F74FD1
:1033200086B00446079800251427408CAE1F143839
:10333000C11700EB5170C0F3CF0B606805900178A6
:1033400001F00F01052904D056A340F2E12264A147
:103350000BE0C08801F032F8C0F30C010291800448
:103360000AD550A340F2E62267A16EA0FEF7CCFB7F
:10337000304609B0BDE8F08F208914381FFA80F874
:1033800080E000BFB8EBCB0F01D34FEACB0080B297
:10339000039000221421022003F062FB5FEA000A7E
:1033A00078D06089142806D23EA34FF4427267A1F8
:1033B0005CA0FEF7A9FB1422DAF804000599FCF7DB
:1033C000A2FFDAF804000490039E2BE06089C01B82
:1033D00085B2AE4200D2354615B3052002F07CF925
:1033E0005FEA000953D060684B463844CDE90005D8
:1033F00002222946042003F0EBFC0090F0B32046A3
:1034000004F0D6F95949C9E904145046009903F06B
:103410004FFD701B0604360C06D000272468D5E744
:1034200024680027002ED1D1781987B20798418CE3
:10343000029814394145C0F30C0001DA40F4005001
:1034400000F0BCFF0499C8800398143080B200F0EB
:10345000B5FF04994880049800214181079851469E
:10346000089A43699847504603F048FF0398A8EB31
:1034700000001FFA80F80298584401E00DE009E0CE
:1034800080B20290B8F100007FF47CAF71E7504643
:1034900003F034FF4FF0FF306BE7484600F008FBC5
:1034A000F5E700002E2E2F4D6964646C657761721C
:1034B00065732F54686972645F50617274792F4C20
:1034C0007749502F7372632F636F72652F6970761F
:1034D000342F6970345F667261672E6300000000EC
:1034E0006970345F66726167282920646F65732094
:1034F0006E6F7420737570706F7274204950206FF6
:103500007074696F6E73000069705F66726167281E
:10351000293A204D4620616C72656164792073659B
:1035200074000000417373657274696F6E20222508
:103530007322206661696C6564206174206C696E19
:103540006520256420696E2025730A0074686973FC
:10355000206E656564732061207062756620696EF7
:10356000206F6E65207069656365210099400008D1
:103570002DE9F05F456806460F4628780421B1EB37
:10358000101F03D0304603F0B9FE8DE000F00F00AD
:103590004FF6FF7101EA8008688800F00FFF0446CB
:1035A0003089A04203D92146304604F035F87189AC
:1035B0004145E7D33089A042E4D3B8F1140FE1D3F9
:1035C0002969DFF848A1C1F303100E28CAF81410C6
:1035D000EA68CAF8102014D0DFF834B14FF00109BE
:1035E0003C4600BF94F82B00C00712D0616881B13F
:1035F000DAF81400884220D02146FFF777FEE0B9C0
:1036000007E097F82B00C0070FD0786868B13C46F8
:1036100013E0B9F1000F0AD09AF814007F2804D003
:103620004FF00009DBF8004002E0002405E02468C8
:10363000BC4200D12468002CD4D13946DAF81000FD
:10364000FFF754FE00289DD19AF81000D146C0F330
:1036500003100E2896D0002C94D0E88830F0C000DB
:1036600005D0304600F01CF906001DD07568C9F879
:103670000850C9E90047297830460907890EA9F89A
:103680000C10C8F1000103F00FFF687A012818D070
:10369000062811D011280AD04F462146D9F8140027
:1036A000FFF724FE90B11FE00020BDE8F09F3946EF
:1036B000304609F079FC1AE03946304605F09EFEA6
:1036C00015E039463046FFF78FFC10E0387DC0F337
:1036D00003100E2808D04146304603F0E8FE0221D0
:1036E00030467560FFF77CFC304603F007FE002192
:1036F000C9F80010C9F80410C9F80810A9F80C108E
:10370000C9F81010C9F81410CEE70000FC340020EE
:1037100074000020FEB5DDE90954089E1AB109B114
:103720000F6807B9211D0096CDE9015400F002F899
:10373000FEBD00002DE9F84F0546DDE90BA8C08964
:10374000DDF828B01F4616468946012806D02CA36E
:1037500040F2333237A13AA0FEF7D6F9002E38D026
:103760001421284603F0A0FE18B16FF00100BDE857
:10377000F88F68896C68142806D221A34FF4587218
:1037800039A12FA0FEF7C0F9277284F809A030688C
:1037900020614520207084F801B0288900F00EFED9
:1037A0003D4F60804FF0000AA4F806A0388800F072
:1037B00005FEA0803888401C3880B9F1000F05D084
:1037C000D9F80000E060A4F80AA006E033480068D9
:1037D000F8E768686E4600690090B8F8220040B1CA
:1037E0002989814205D9324641462846FFF796FD90
:1037F000BDE7D8F814304046324629469847B6E728
:103800002E2E2F4D6964646C6577617265732F5439
:10381000686972645F50617274792F4C7749502FD8
:103820007372632F636F72652F697076342F6970BE
:10383000342E6300702D3E726566203D3D203100C0
:10384000417373657274696F6E202225732220663E
:1038500061696C6564206174206C696E6520256403
:1038600020696E2025730A00636865636B207468A5
:10387000617420666972737420706275662063617A
:103880006E20686F6C642073747275637420697045
:103890005F68647200000000DA00002030E5000874
:1038A0002DE9F05F45688346287800F00F00052871
:1038B0007DD1E88800F082FDC004070C688800F024
:1038C0007DFD297801F00F01494200EB81001FFACC
:1038D00080F8584603F084FB5D4C0646208830444F
:1038E0000A2809D93146284600F080FB00285ED01E
:1038F000208830440A285AD8A14664684FF0000A4C
:103900000CE06069E968884207D1A06929698842AA
:1039100003D1A089A988884203D02468002CF0D163
:1039200006E02CB1E88800F049FDC0041BD025E07A
:10393000042001F0D1FE04000AD13146284600F0EF
:1039400055FBB0427FDB042001F0C6FE04007AD0B4
:103950002021FCF7F1FC0320E077D9F80410216066
:10396000C9F8044004E0E08900F028FDC00405D057
:103970001422294604F10800FCF7C5FCA87940F39D
:1039800040156D1C08D007EB080080B2B8425AD32E
:103990004FF6EB71884256D82A465946204600F029
:1039A000CFF8411C4FD0B9F80020324400E04AE083
:1039B000A9F8002035B107EB0801A183A17F41F0F0
:1039C0000101A17701283CD1A08B14221430A083DF
:1039D000606804F10801456828462E68FCF793FCEE
:1039E000A08B00F0EBFC6880A5F806A0A5F80AA063
:1039F0006FF01308656809E041463046776803F0C8
:103A000053FD3146284603F053FA3E68002EF3D1A9
:103A1000D9F804104E468C4205D1002105E0086813
:103A2000A04202D001460029F9D1204600F0B8F9A1
:103A3000284603F0D5FA3188081A30802846BDE8B8
:103A4000F09F0020FBE7584603F058FCF9E7000020
:103A5000DC00002070B50446134813E090F82B10EA
:103A6000CA070FD04A070DD543685BB18268256845
:103A7000134005EA02069E4214D0890702D4C168A9
:103A80008D420FD000680028E8D10848006840B196
:103A900090F82B10CA0704D0490702D541680029C5
:103AA00000D1002070BD00007400002078000020CC
:103AB00010B5040006D106A340F2AE2213A116A051
:103AC000FEF722F82146BDE81040052001F090BD28
:103AD0002E2E2F4D6964646C6577617265732F5467
:103AE000686972645F50617274792F4C7749502F06
:103AF0007372632F636F72652F697076342F6970EC
:103B0000345F667261672E63000000007020213D03
:103B1000204E554C4C000000417373657274696F00
:103B20006E2022257322206661696C6564206174B1
:103B3000206C696E6520256420696E2025730A005B
:103B40002DE9F0474C68064692460F4600254FF097
:103B50000108608800F032FC217801F00F01494231
:103B600000EB8109E08800F029FCC0047C68010CAE
:103B70000020206001EB0900A18083B2E38072681D
:103B800026E05068B0F804C0614515D222606DB1DE
:103B9000B5F806C061457BD38088834278D82F6012
:103BA000A088844506D04FF0000803E08088834257
:103BB0006ED8776072B12DE06AD0C288914267D327
:103BC00025B1EA88624501D04FF000080268054639
:103BD000002AD6D1002D12D0E888A188884206D9C3
:103BE00032A340F2AB1240A147A0FDF78DFF2F603A
:103BF000E888A18888420DD04FF000080AE070687C
:103C0000002806D029A340F2B31249A13EA0FDF737
:103C10007BFF7760BAF1000F02D1B07FC00732D0CE
:103C2000B8F1000F32D07268002A2FD05068808817
:103C300000282BD12168204629B14C68C088A18872
:103C40008842F7D022E0B8F1000F1FD032B917A395
:103C50004FF4EA7244A12CA0FDF756FF706840684B
:103C6000A04206D111A340F2D5123FA126A0FDF734
:103C70004BFF206830B10DA340F2D7123EA122A025
:103C8000FDF742FF0120BDE8F08701E00020FAE7E0
:103C9000384603F0A5F9014640480288511A0180D0
:103CA000384603F02BFB4FF0FF30ECE72E2E2F4D64
:103CB0006964646C6577617265732F5468697264B6
:103CC0005F50617274792F4C7749502F7372632F54
:103CD000636F72652F697076342F6970345F667216
:103CE00061672E6300000000636865636B20667285
:103CF00061676D656E747320646F6E2774206F76D4
:103D000065726C6170000000417373657274696F55
:103D10006E2022257322206661696C6564206174BF
:103D2000206C696E6520256420696E2025730A0069
:103D30006E6F2070726576696F7573206672616749
:103D40006D656E742C2074686973206D75737420B2
:103D5000626520746865206669727374206672619A
:103D6000676D656E7421000073616E6974792063FC
:103D70006865636B0000000076616C69646174655E
:103D80005F646174616772616D3A6E6578745F70CB
:103D9000627566213D4E554C4C000000DC00002051
:103DA00070B504460C480D464168A14202D1216815
:103DB00041600AE0002D06D108A340F2451216A189
:103DC0001CA0FDF7A1FE206828602146BDE87040D8
:103DD000042001F00DBC0000DC0000202E2E2F4D31
:103DE0006964646C6577617265732F546869726485
:103DF0005F50617274792F4C7749502F7372632F23
:103E0000636F72652F697076342F6970345F6672E4
:103E100061672E630000000073616E69747920632E
:103E20006865636B206C696E6B6564206C69737484
:103E300000000000417373657274696F6E20222563
:103E40007322206661696C6564206174206C696E00
:103E50006520256420696E2025730A002DE9F0474E
:103E6000054600240F46A94205D12FA3AB223DA150
:103E70003FA0FDF749FE002F08D03868A84205D0C2
:103E800029A3AD2244A13AA0FDF73EFE6E684FF48F
:103E900080387068818800291AD10068686014220F
:103EA00005F108017068FCF72EFA01213046FFF792
:103EB00013FA304603F094F80446404505D31AA39C
:103EC000BC223AA12AA0FDF71FFE304603F016FAE5
:103ED0006E6812E07068B1460668484603F080F8E4
:103EE0000444444505D310A3CC2230A120A0FDF703
:103EF0000BFEA4B2484603F001FA002EEAD139467F
:103F00002846FFF74DFF314D2888A04205D206A371
:103F1000D2222FA116A0FDF7F7FD2888001B2880CC
:103F20002046BDE8F08700002E2E2F4D6964646C9A
:103F30006577617265732F54686972645F5061724E
:103F400074792F4C7749502F7372632F636F7265AA
:103F50002F697076342F6970345F667261672E63E3
:103F6000000000007072657620213D2069707200AB
:103F7000417373657274696F6E2022257322206607
:103F800061696C6564206174206C696E65202564CC
:103F900020696E2025730A00707265762D3E6E656D
:103FA0007874203D3D206970720000007062756673
:103FB000735F6672656564202B20636C656E203CC0
:103FC0003D2030786666666600000000DC00002058
:103FD00069705F72656173735F70627566636F7538
:103FE0006E74203E3D20636C656E00002DE9F04745
:103FF0001D4F8946064600240022134611461546E9
:10400000786822E0D0F814C0D6F80C80C4450BD1F3
:10401000D0F818C0D6F81080C44505D1B0F80CC04F
:10402000B6F80480C44509D06D1C2AB190F81FC0B1
:1040300092F81F80C44501D802461946D0F800C046
:10404000BCF1000F00D0034660460028DAD11AB157
:104050001046FFF703FF04444C4501DA012DCBDC89
:104060002046BDE8F0870000DC00002070B509485C
:10407000002544680BE0E07F20B1401EE077254634
:10408000246804E0204624682946FFF7E7FE002C58
:10409000F1D170BDDC00002010B5040006D108A3EA
:1040A0004FF42E7215A118A0FDF72EFD606908B11E
:1040B00003F024F92046BDE81040FFF7F9BC0000EA
:1040C0002E2E2F4D6964646C6577617265732F5471
:1040D000686972645F50617274792F4C7749502F10
:1040E0007372632F636F72652F697076342F6970F6
:1040F000345F667261672E63000000007063722097
:10410000213D204E554C4C00417373657274696FAC
:104110006E2022257322206661696C6564206174BB
:10412000206C696E6520256420696E2025730A0065
:1041300070B58CB0424D0446002640480096286079
:10414000012068602E8204218DF8041080218DF8F2
:104150000510E1218DF806100C218DF808608DF80E
:1041600007108DF8091001A9C5E90510C005C5E9BA
:1041700007602846FCF738FB28B994F82B0040F07C
:10418000040084F82B0004232E4A2F492C48FCF706
:104190006DFA2D4A04238032A2F580712848FCF77D
:1041A0002BFA062084F8240068690121007884F83D
:1041B00025006869407884F826006869807884F86A
:1041C00027006869C07884F828006869007984F855
:1041D00029006869407984F82A0040F2DC50608444
:1041E00094F82B0040F00A0084F82B00039603A8F3
:1041F000049602F07FFB15491C220860144905A8AB
:10420000FCF781F8214605A802F0FAFB0C48FCF700
:10421000B1FC6A461D210A48FCF764FC00981D2188
:1042200040F00B0206480092FCF76CFD6A461D2127
:104230000348FCF757FC0CB070BD00000080024042
:1042400074340020A41C002054040020040000202A
:10425000B4E300082DE9F84F0020044600902B48F5
:10426000FCF741FA10B10020BDE8F88F2748818F94
:10427000D0F840900904090C2DD00322042002F04C
:10428000EFFB009038B32148009D40F2F45BD0F87A
:1042900030806E8900270FE0A4F2F4525242FCF7FE
:1042A00032F8D8F80C008046D0F808903F1BAAF2EC
:1042B000F456002407F2F457686806EB040ADA455E
:1042C00009EB04013844E7D83246FCF71CF82D68A6
:1042D0003444002DDDD10D480022016B05E00B6850
:1042E00043F000430B60C968521C836B9342F6D8BD
:1042F00000218163006800F580504269120602D5F2
:104300008022426181600098AEE700007434002092
:104310002DE9F05F27480D46C66A00208346044613
:10432000D6F808A031E0306800280CDB6F894FF028
:10433000000818E0A4F2F4525242FBF7E4FFF668DA
:104340003068002802DA6FF0070025E0D6F808A0F0
:10435000A8EB040000F2F458ABEB0400A9F2F45708
:1043600000F2F45B002407EB040940F2F4518945A4
:1043700069680AEB04004144DCD83A46FBF7C3FF06
:104380000BEB07002D683C448346002DCBD1014642
:104390000848FCF731FC00200649096801F5805106
:1043A0004A69920603D520224A6100224A60BDE88C
:1043B000F09F00007434002000BA704740BA704784
:1043C00010B504F041F900F0D9FE01F05FF902F0F8
:1043D000FBF808F0E7FD05F00FF8BDE8104004F029
:1043E00073BA70B5044600686FF00C0590F90800C8
:1043F000A84214DDFA2020712168486880B109784C
:1044000001F0F001102906D0202909D1A289A16864
:1044100008F072FD03E0A289A16804F0E3FB2071BB
:10442000206800280CD004F0B5F8216891F9082024
:10443000AA4201DD22790A72BDE8704004F0D2B8C8
:1044400070BD000070B5016804466FF00A0348783B
:104450004A68B2B10A780125B5EB121F11D1227A50
:10446000032A01D002280CD003280AD001280AD040
:10447000D00702D0084601F007FC2068416AB9B9AC
:1044800014E0237101E0FB2020712068002844D053
:1044900004F080F8216891F9082012F10D0F01DD78
:1044A00022790A72BDE8704004F09CB8006A30B10D
:1044B0001AA340F21B7226A12CA0FDF725FB216850
:1044C00004204870206800214462206800F068F8E9
:1044D000002822D020684078042806D00FA340F29C
:1044E00021722CA121A0FDF70FFB2C4804F00BF941
:1044F000206800210C3004F059F8284804F0EFF847
:1045000020684078002808D0BDE8704003A340F23E
:10451000257220A115A0FDF7F7BA70BD2E2E2F4DE4
:104520006964646C6577617265732F54686972643D
:104530005F50617274792F4C7749502F7372632FDB
:104540006170692F6170695F6D73672E6300000091
:10455000616C72656164792077726974696E672035
:104560006F7220636C6F73696E67000041737365CF
:104570007274696F6E2022257322206661696C65F2
:1045800064206174206C696E6520256420696E204A
:1045900025730A00737461746521000028000020EF
:1045A0002DE9F0478A46040006D16FA340F243325A
:1045B0007AA17EA0FDF7A8FA20780121B1EB101FA7
:1045C00006D069A34FF4517282A178A0FDF79CFA3E
:1045D0006078042806D064A340F2453285A173A018
:1045E000FDF792FA606830B95FA340F246328AA1C3
:1045F0006EA0FDF789FA606A30B95BA340F24732DA
:104600008AA16AA0FDF780FA606AD4F80480007A73
:1046100000F0010900F0020703280FD0B9F1000FE4
:1046200007D098F81400052808D0062806D00828D6
:1046300004D04FB198F81A00C00605D50126002114
:10464000404604F0CBFA00E0002698F81400012858
:104650001DD0B9F1000F07D00021404606F0F2FF4F
:104660000021404604F02BFA1FB10021404607F01C
:104670005BFA96B100221146404606F00DF8002183
:10468000404604F019FE404604F03EFB0AE00021DB
:10469000404604F014FA002EF5D13A464946404609
:1046A00007F092FA05000ED0681C0CD1606A407ABF
:1046B00020B198F8140001283AD040E01EB14046DD
:1046C00004F0FAF90025606A016805710020606253
:1046D00001F10C086070BDB936B16060A36A1BB10E
:1046E0000022042120469847B9F1000F05D0A36AA3
:1046F0001BB100221146204698472FB1A36A1BB177
:1047000000220221204698474CB103F043FF94F960
:10471000081011F10D0F00DD257203F063FFBAF1EF
:10472000000F02D0404604F00FF80020BDE8F087EB
:104730000DA340F2E33244A11CA0FDF7E5F91FB13F
:104740004A49404607F0F0F901224949404605F040
:10475000A3FF4849404604F0AFFD2146404604F01F
:104760003DFA2846E2E700002E2E2F4D6964646C66
:104770006577617265732F54686972645F50617206
:1047800074792F4C7749502F7372632F6170692FA2
:104790006170695F6D73672E63000000696E7661FA
:1047A0006C696420636F6E6E000000004173736576
:1047B0007274696F6E2022257322206661696C65B0
:1047C00064206174206C696E6520256420696E2008
:1047D00025730A007468697320697320666F7220FC
:1047E000746370206E6574636F6E6E73206F6E6C91
:1047F00079000000636F6E6E206D757374206265C2
:1048000020696E207374617465204E4554434F4E89
:104810004E5F434C4F53450070636220616C72657C
:1048200061647920636C6F7365640000636F6E6E02
:104830002D3E63757272656E745F6D736720213DE6
:10484000204E554C4C000000436C6F73696E67201E
:1048500061206C697374656E20706362206D61798C
:10486000206E6F74206661696C2100001584000859
:10487000C17A0008751F000870B5044600684578C5
:10488000002D15D000780121B1EB101F05D08A0250
:1048900042A34FA153A0FDF737F9022D08D0032DF5
:1048A00003D12068007F400702D4FB20207121E063
:1048B00000252571206801F0E7F92068416869B199
:1048C000027802F0F002102A2BD0202A04D1CD6108
:1048D0002068406808F062FC206845602068836AB0
:1048E00043B10022114698472068836A13B1002221
:1048F0000221984720680C3003F029FF00284BD094
:104900002068002848D003F045FE216891F908206E
:1049100012F10D0F01DD22790A72BDE8704003F03B
:1049200061BE416A09B9006A30B11CA340F2344249
:1049300036A12CA0FDF7E8F8216804204870032078
:1049400020722068002144622068FFF729FE0028B9
:1049500022D020684078042806D010A340F23B42C1
:1049600031A120A0FDF7D0F8314803F0CCFE20683B
:1049700000210C3003F01AFE2D4803F0B0FE206831
:104980004078002808D0BDE8704004A340F23F42C0
:1049900025A114A0FDF7B8B870BD00002E2E2F4D34
:1049A0006964646C6577617265732F5468697264B9
:1049B0005F50617274792F4C7749502F7372632F57
:1049C0006170692F6170695F6D73672E630000000D
:1049D0006E6574636F6E6E207374617465206572AA
:1049E000726F7200417373657274696F6E20222555
:1049F0007322206661696C6564206174206C696E45
:104A00006520256420696E2025730A00616C72653B
:104A10006164792077726974696E67206F722063B0
:104A20006C6F73696E6700007374617465210000B8
:104A300028000020F8B5044600686FF00C0690F9D5
:104A40000800B04230DDF520207121684868002858
:104A50004AD00A780123B3EB121F55D149780027B9
:104A600011B102293FD03FE0017D09B1FA201BE0DE
:104A7000FF216A4605F032F9050013D02068103096
:104A800003F028FE38B12068103003F0E9FD2068FB
:104A9000103003F012FE27712068143003F01AFE64
:104AA00020B109E09DF8000020711DE0206806217A
:104AB000143003F0DFFD2071207928B1284604F07E
:104AC00023F9206847600FE02168022048702168C0
:104AD00028464D60216804F081F820680C49406840
:104AE00003F0EDFF00E02771206800280ED003F0EE
:104AF00051FD216891F90820B24201DD22790A7244
:104B0000BDE8F84003F06EBDF020CDE7F8BD000031
:104B1000211D000810B5044600202071206840685F
:104B200010B9204602F092FE206800280FD003F052
:104B300031FD0146206890F9082012F10D0F01DDCA
:104B400022790272BDE81040084603F04BBD10BD4B
:104B50002DE9F04100210446017100684168A1B1CE
:104B600000780121B1EB101F0FD1A5680F044FF69B
:104B7000FF78BD4201D3464600E0AEB22068314620
:104B8000406806F0C3FDAD1BF3D1206800280DD0AE
:104B900003F000FD216891F9082012F10D0F01DDED
:104BA00022790A72BDE8F04103F01CBDBDE8F08136
:104BB00070B5044600686FF00C0590F90810A94222
:104BC00001DC217108E002780121B1EB121F5CD1F8
:104BD00042788AB1FB2020712068002857D003F06A
:104BE000D9FC216891F90820AA4201DD22790A72D4
:104BF000BDE8704003F0F6BC4268002A43D0417023
:104C00002068416A09B9006A30B121A340F282628A
:104C10002CA133A0FCF778FFE06830B91CA340F268
:104C2000846239A12EA0FCF76FFF206844622168DE
:104C3000002008620021206800F076F8002826D0C5
:104C400020684078012806D011A340F2896233A180
:104C500023A0FCF759FF334803F055FD20680021DD
:104C60000C3003F0A3FC2F4803F039FD2068407896
:104C700001280CD1BDE8704005A340F28D6227A148
:104C800017A0FCF741BFF520A5E7FA20A3E770BD08
:104C90002E2E2F4D6964646C6577617265732F5495
:104CA000686972645F50617274792F4C7749502F34
:104CB0007372632F6170692F6170695F6D73672E06
:104CC00063000000616C72656164792077726974B9
:104CD000696E67206F7220636C6F73696E67000086
:104CE000417373657274696F6E202225732220668A
:104CF00061696C6564206174206C696E652025644F
:104D000020696E2025730A006D73672D3E6D7367F1
:104D10002E772E6C656E20213D20300073746174F7
:104D200065210000280000202DE9F34F81B0040028
:104D30004FF0000906D16BA340F2E35276A17AA0AE
:104D4000FCF7E2FE6078012806D066A340F2E45248
:104D50007FA175A0FCF7D8FE606A002806D161A388
:104D600040F2E55282A170A0FCF7CEFE606830B937
:104D70005CA340F2E65285A16BA0FCF7C5FED4E926
:104D80000801C968884206D356A340F2E75285A1BC
:104D900065A0FCF7B9FE606A217F057C890701D414
:104DA000690701D5012700E000278268216A0A44CB
:104DB0000092C268501AB0F5803F04D34FF6FF76D8
:104DC00045F0020500E086B260686FF0060B6FF0F8
:104DD0000C0AB0F860004FF00008B04206D2064658
:104DE00017B11EB95D4616E045F0020588199042DC
:104DF00006D93CA340F2136277A14BA0FCF784FED6
:104E00002B4632466068009907F038FA050001D059
:104E1000681C45D177B1606AC068B0420AD9A36AFC
:104E20001BB13246032120469847207F40F01000F6
:104E3000207710E0606840F29932B0F8601091423B
:104E400003D9B0F86200082805D3A36A1BB1324623
:104E500003212046984715B1681C18D020E0206A2D
:104E600030442062616ACA68904200D017B14FF0A6
:104E70000109C860606805F06FF8504505DD011D47
:104E800003D0B9F1000F0ED129E0054608E06068B3
:104E900005F062F85045F8DD011DF6D0FFB15D4622
:104EA000616AC1F80C80606A06680571C4F82480E4
:104EB000C4F8208084F801800C3644B103F06AFB0A
:104EC00094F90810514500DD257203F08BFB029820
:104ED00010B1304603F038FC0020BDE8FE8F4FF0E3
:104EE000FF30FAE72E2E2F4D6964646C657761728E
:104EF00065732F54686972645F50617274792F4CC6
:104F00007749502F7372632F6170692F6170695FE9
:104F10006D73672E63000000636F6E6E20213D206D
:104F20004E554C4C00000000417373657274696FFC
:104F30006E2022257322206661696C65642061748D
:104F4000206C696E6520256420696E2025730A0037
:104F5000636F6E6E2D3E7374617465203D3D204E0F
:104F60004554434F4E4E5F57524954450000000090
:104F7000636F6E6E2D3E63757272656E745F6D73D6
:104F80006720213D204E554C4C000000636F6E6E33
:104F90002D3E7063622E74637020213D204E554C6F
:104FA0004C000000636F6E6E2D3E77726974655F12
:104FB0006F6666736574203C20636F6E6E2D3E6372
:104FC000757272656E745F6D73672D3E6D73672EBB
:104FD000772E6C656E0000006C7769705F6E65748B
:104FE000636F6E6E5F646F5F77726974656D6F7209
:104FF000653A20696E76616C6964206C656E6774D1
:105000006821000088B0FBF7B1FFFCF7BFFCFCF79C
:1050100049FC1C2206496846FBF775F900216846E1
:1050200001F0EEFC0349086001F04AFBFEE70000D6
:1050300098E300080000002001460020842900D0E9
:10504000C81C704770B5040040D0A00706D020A34C
:105050004FF4D6722AA133A0FCF756FD3B4D2868C9
:10506000844202D36868844206D319A34FF4D772EE
:1050700037A12CA0FCF748FD2868844202D3686859
:10508000844205D303F086FABDE8704003F0AABA63
:105090002E480C3003F023FB14F8040C083C30B904
:1050A0000BA34FF4E07230A11EA0FCF72DFD0020F1
:1050B0002071A868844200D2AC60204602F042FC15
:1050C000BDE8704021480C3003F01DBB70BD0000EE
:1050D0002E2E2F4D6964646C6577617265732F5451
:1050E000686972645F50617274792F4C7749502FF0
:1050F0007372632F636F72652F6D656D2E63000091
:105100006D656D5F667265653A2073616E6974796D
:1051100020636865636B20616C69676E6D656E7492
:1051200000000000417373657274696F6E20222560
:105130007322206661696C6564206174206C696EFD
:105140006520256420696E2025730A002C0000204C
:105150006D656D5F667265653A206C6567616C2090
:105160006D656D6F727900006D656D5F6672656566
:105170003A206D656D2D3E757365640010B511485C
:10518000114A20F003004FF4C8631060038000212F
:105190004180017100F5C861012451600C710B80E0
:1051A0004B80906002F10C0003F09EFA002808D0BA
:1051B000BDE8104005A34FF4CC7210A116A0FCF777
:1051C000A3BC10BD173500202C0000202E2E2F4D23
:1051D0006964646C6577617265732F546869726481
:1051E0005F50617274792F4C7749502F7372632F1F
:1051F000636F72652F6D656D2E6300006661696C6B
:10520000656420746F20637265617465206D656DDF
:105210005F6D757465780000417373657274696FB2
:105220006E2022257322206661696C65642061749A
:10523000206C696E6520256420696E2025730A0044
:105240002DE9F04700280DD04FF6FC71C01C00EA94
:1052500001044FF4C8690C2C01D20C2404E04C4525
:1052600002D90020BDE8F0873A4803F038FA394EF9
:10527000C4F5C8630C3E3268B068811A89B262E036
:1052800055182F79002F5DD12F887F1A083FA7422C
:1052900058D32B8804F114075B1A083B4FF0010C1C
:1052A000BB4215D30B1908339FB2D3194FF0000836
:1052B00083F80480B5F80080A3F8008059802F801F
:1052C00085F804C01988494504D0931CCF5201E0E9
:1052D00085F804C0854213D1716801E0008810444C
:1052E00003790BB18842F9D1B060884208D00079C7
:1052F00030B119A340F2CF2223A12AA0FCF704FC6D
:10530000144803F000FA281971680830884206D959
:1053100011A340F2D3222DA122A0FCF7F5FBA80790
:105320000DD00DA340F2D52234A11EA0FCF7ECFB5A
:1053300009A340F2D7223DA11AA0FCF7E5FB05F135
:1053400008008FE7515A8B429AD8024803F0DBF9E4
:1053500087E70000380000202E2E2F4D6964646C12
:105360006577617265732F54686972645F5061720A
:1053700074792F4C7749502F7372632F636F726566
:105380002F6D656D2E6300006D656D5F6D616C6CDA
:105390006F633A20216C667265652D3E7573656496
:1053A00000000000417373657274696F6E202225DE
:1053B0007322206661696C6564206174206C696E7B
:1053C0006520256420696E2025730A006D656D5F78
:1053D0006D616C6C6F633A20616C6C6F63617465B6
:1053E00064206D656D6F7279206E6F742061626FDD
:1053F00076652072616D5F656E642E006D656D5F10
:105400006D616C6C6F633A20616C6C6F6361746585
:1054100064206D656D6F72792070726F7065726C4B
:105420007920616C69676E65642E00006D656D5F43
:105430006D616C6C6F633A2073616E69747920637F
:105440006865636B20616C69676E6D656E740000E2
:105450002DE9F04705464FF6FC70C91C01EA00042F
:105460004FF4C86A0C2C01D20C2401E054452DD80D
:105470003A4F3868854202D37868854206D338A30C
:1054800040F2F31242A148A0FCF73EFB3868854287
:1054900002D379688D4204D303F07CF803F0A2F8BC
:1054A00019E0A5F10806B846301A87B23088C01B4B
:1054B00008381FFA80F94C4506D929A340F2062284
:1054C00043A139A0FCF720FB4C4503D94FF0000065
:1054D000BDE8F08701D12846FAE7204800F10C002A
:1054E00003F0FDF83288D8F80010404602EB0108BE
:1054F000002398F80420DAB104F114024A4512D8C6
:105500003A19083294B2D0F808C00A19624500D29C
:105510008260137130881080578034801088504525
:1055200001D0891C44520D480C3003F0ECF8D2E74E
:105530003A1908328468B8F800C092B2444501D1E3
:105540008C18846088180371A0F800C047803280EE
:1055500000885045E7D0891C4252E4E72C00002027
:105560002E2E2F4D6964646C6577617265732F54BC
:10557000686972645F50617274792F4C7749502F5B
:105580007372632F636F72652F6D656D2E630000FC
:105590006D656D5F7472696D3A206C6567616C2032
:1055A0006D656D6F72790000417373657274696F18
:1055B0006E2022257322206661696C656420617407
:1055C000206C696E6520256420696E2025730A00B1
:1055D0006D656D5F7472696D2063616E206F6E6CB6
:1055E0007920736872696E6B206D656D6F727900DA
:1055F0000D2806D307A340F2DB1212A118A0FCF776
:1056000083BA002904D0204A52F82000FCF702BCDB
:10561000704700002E2E2F4D6964646C65776172AF
:1056200065732F54686972645F50617274792F4C8E
:105630007749502F7372632F636F72652F6D656D9D
:10564000702E63006D656D705F667265653A2074DB
:10565000797065203C204D454D505F4D415800000C
:10566000417373657274696F6E2022257322206600
:1056700061696C6564206174206C696E65202564C5
:1056800020696E2025730A0090E4000830B5064DAD
:10569000002400BF55F8240000F008F8641CA4B2F0
:1056A0000D2CF7D330BD000090E400088268002183
:1056B00011604168C91C21F00301002207E08368E2
:1056C000521C1B680B608368196003881944438867
:1056D0009342F4DC7047000010B50D2808D308A3EE
:1056E00040F2871212A11AA0FCF70EFA002010BD9A
:1056F000214951F82000BDE81040FCF7DFBB000055
:105700002E2E2F4D6964646C6577617265732F541A
:10571000686972645F50617274792F4C7749502FB9
:105720007372632F636F72652F6D656D702E6300EA
:105730006D656D705F6D616C6C6F633A207479702C
:1057400065203C204D454D505F4D41580000000004
:10575000417373657274696F6E202225732220660F
:1057600061696C6564206174206C696E65202564D4
:1057700020696E2025730A0090E4000810B56FF0D0
:105780000F0460B179B1002A11D04368002B16D004
:105790005B680B60406840891080002010BD09A341
:1057A000C22215A106E007A3C3221AA102E005A3A5
:1057B000C42220A126A0FCF7A7F9204610BD6FF057
:1057C000010010BD2E2E2F4D6964646C65776172E7
:1057D00065732F54686972645F50617274792F4CDD
:1057E0007749502F7372632F6170692F6E657462F1
:1057F00075662E63000000006E65746275665F64F6
:105800006174613A20696E76616C696420627566C4
:10581000000000006E65746275665F646174613AD1
:1058200020696E76616C6964206461746170747261
:10583000000000006E65746275665F646174613AB1
:1058400020696E76616C6964206C656E00000000F2
:10585000417373657274696F6E202225732220660E
:1058600061696C6564206174206C696E65202564D3
:1058700020696E2025730A0010B504000CD0206842
:1058800020B101F03BFD0020606020602146BDE8B2
:1058900010400620FFF7ACBE10BD00002DE9F84314
:1058A0000D0004466FF00F0625D000202860002C64
:1058B00026D094F908006FF00C08404519DD04F17A
:1058C0001400064602F006FF6FF00E07002820D0F5
:1058D00000226946304602F029FE009EA36A1BB1F1
:1058E000002201212046984712490098884212D18F
:1058F0004046BDE8F88310A340F28D121BA103E0DF
:105900000DA340F28F1221A128A0FCF7FDF830462C
:10591000EFE73846EDE716B100202E60E9E702F028
:1059200039FE94F90810414500DD277202F05AFE55
:10593000EFE70000180000202E2E2F4D6964646CE4
:105940006577617265732F54686972645F50617224
:1059500074792F4C7749502F7372632F6170692FC0
:105960006170695F6C69622E630000006E6574632C
:105970006F6E6E5F6163636570743A20696E766105
:105980006C696420706F696E746572006E65746313
:105990006F6E6E5F6163636570743A20696E7661E5
:1059A0006C696420636F6E6E000000004173736564
:1059B0007274696F6E2022257322206661696C659E
:1059C00064206174206C696E6520256420696E20F6
:1059D00025730A002DE9F04107460E460720FFF720
:1059E0007BFE041E26D000252572277007F0F000EC
:1059F0006560102809D0202807D016A34FF42A721A
:105A000021A12BA0FCF780F80FE004F11000062183
:105A1000074602F02FFE40B9002104F10C0002F00D
:105A20007AFE48B1384602F01BFE21460720FFF7F8
:105A3000DFFD0020BDE8F08104F1140002F03DFE1E
:105A400065704FF0FF30A061C4E9095625622577E3
:105A50002046EFE72E2E2F4D6964646C65776172E6
:105A600065732F54686972645F50617274792F4C4A
:105A70007749502F7372632F6170692F6170695F6E
:105A80006D73672E630000006E6574636F6E6E5FEA
:105A9000616C6C6F633A20756E646566696E6564EF
:105AA000206E6574636F6E6E5F74797065000000C0
:105AB000417373657274696F6E20222573222066AC
:105AC00061696C6564206174206C696E6520256471
:105AD00020696E2025730A0010B50A680C460C3246
